{
  "transactions": [
    {
      "hash": "0x9506cdf3ae2eb288b30cdcd230804cffa35f7742b7b0fd92f14e6657f2d96466",
      "transactionType": "CALL",
      "contractName": null,
      "contractAddress": "0x9995311bf7bf8675eea58258bcf3f99bcfc18478",
      "function": "setRoleCapability(uint8,address,bytes4,bool)",
      "arguments": [
        "13",
        "0xb009Ae185dcc23419d2D1e4abdC42FC30648DacB",
        "0xfe030ec4",
        "true"
      ],
      "transaction": {
        "from": "0x70b2dc70cc04621eca8f953420c89c713edf973c",
        "to": "0x9995311bf7bf8675eea58258bcf3f99bcfc18478",
        "gas": "0x12686",
        "value": "0x0",
        "input": "0x7d40583d000000000000000000000000000000000000000000000000000000000000000d000000000000000000000000b009ae185dcc23419d2d1e4abdc42fc30648dacbfe030ec4000000000000000000000000000000000000000000000000000000000000000000000000000000000000000000000000000000000000000000000001",
        "nonce": "0x14",
        "chainId": "0x18232"
      },
      "additionalContracts": [],
      "isFixedGasLimit": false
    },
    {
      "hash": "0x507792c4d737b84fc054fd1ed875fb3bdc00e388e513fbf5b2459272717f8143",
      "transactionType": "CALL",
      "contractName": null,
      "contractAddress": "0x9995311bf7bf8675eea58258bcf3f99bcfc18478",
      "function": "setRoleCapability(uint8,address,bytes4,bool)",
      "arguments": [
        "13",
        "0xb009Ae185dcc23419d2D1e4abdC42FC30648DacB",
        "0xd1985813",
        "true"
      ],
      "transaction": {
        "from": "0x70b2dc70cc04621eca8f953420c89c713edf973c",
        "to": "0x9995311bf7bf8675eea58258bcf3f99bcfc18478",
        "gas": "0x12686",
        "value": "0x0",
        "input": "0x7d40583d000000000000000000000000000000000000000000000000000000000000000d000000000000000000000000b009ae185dcc23419d2d1e4abdc42fc30648dacbd1985813000000000000000000000000000000000000000000000000000000000000000000000000000000000000000000000000000000000000000000000001",
        "nonce": "0x15",
        "chainId": "0x18232"
      },
      "additionalContracts": [],
      "isFixedGasLimit": false
    },
    {
      "hash": "0xcb23312b622301750b2258a453210e8b96cb6d6459d0313bf0dc78d7f7fc8a26",
      "transactionType": "CALL",
      "contractName": null,
      "contractAddress": "0x9995311bf7bf8675eea58258bcf3f99bcfc18478",
      "function": "setPublicCapability(address,bytes4,bool)",
      "arguments": [
        "0xb009Ae185dcc23419d2D1e4abdC42FC30648DacB",
        "0x53174fa4",
        "true"
      ],
      "transaction": {
        "from": "0x70b2dc70cc04621eca8f953420c89c713edf973c",
        "to": "0x9995311bf7bf8675eea58258bcf3f99bcfc18478",
        "gas": "0x12252",
        "value": "0x0",
        "input": "0xc6b0263e000000000000000000000000b009ae185dcc23419d2d1e4abdc42fc30648dacb53174fa4000000000000000000000000000000000000000000000000000000000000000000000000000000000000000000000000000000000000000000000001",
        "nonce": "0x16",
        "chainId": "0x18232"
      },
      "additionalContracts": [],
      "isFixedGasLimit": false
    },
    {
      "hash": "0x041a69046b44c769bca636439f6d769230251be2a0ab4c8460d9bb4e20c62f74",
      "transactionType": "CALL",
      "contractName": null,
      "contractAddress": "0x9995311bf7bf8675eea58258bcf3f99bcfc18478",
      "function": "setPublicCapability(address,bytes4,bool)",
      "arguments": [
        "0xb009Ae185dcc23419d2D1e4abdC42FC30648DacB",
        "0x19197ec6",
        "true"
      ],
      "transaction": {
        "from": "0x70b2dc70cc04621eca8f953420c89c713edf973c",
        "to": "0x9995311bf7bf8675eea58258bcf3f99bcfc18478",
        "gas": "0x12252",
        "value": "0x0",
        "input": "0xc6b0263e000000000000000000000000b009ae185dcc23419d2d1e4abdc42fc30648dacb19197ec6000000000000000000000000000000000000000000000000000000000000000000000000000000000000000000000000000000000000000000000001",
        "nonce": "0x17",
        "chainId": "0x18232"
      },
      "additionalContracts": [],
      "isFixedGasLimit": false
    }
  ],
  "receipts": [
    {
      "status": "0x1",
      "cumulativeGasUsed": "0xc963",
      "logs": [
        {
          "address": "0x9995311bf7bf8675eea58258bcf3f99bcfc18478",
          "topics": [
            "0xa52ea92e6e955aa8ac66420b86350f7139959adfcc7e6a14eee1bd116d09860e",
            "0x000000000000000000000000000000000000000000000000000000000000000d",
            "0x000000000000000000000000b009ae185dcc23419d2d1e4abdc42fc30648dacb",
            "0xfe030ec400000000000000000000000000000000000000000000000000000000"
          ],
          "data": "0x0000000000000000000000000000000000000000000000000000000000000001",
          "blockHash": "0xe3778cfae12e717461b408dd7665754922ce3a9ad52f2a1cbb8f225debe16c6f",
          "blockNumber": "0x29c599c",
          "blockTimestamp": "0x694d3e17",
          "transactionHash": "0x9506cdf3ae2eb288b30cdcd230804cffa35f7742b7b0fd92f14e6657f2d96466",
          "transactionIndex": "0x1",
          "logIndex": "0x0",
          "removed": false
        }
      ],
      "logsBloom": "0x00000000000000000040000000000000000000000000000000000000000000000000000005000000008000000000000000000000000000000000000000000000000000000000000000000000000000000002000000000000000000000000000000000000000000000000000000000000000000000000080000000000000000000000000000000000000000000000000000000400010000000000000000000000000000000000000000000000000001000000000000000000000000000004000000000000000000000000000000080000000000000000000020000000000000020000000000000000000000100000000000000000000000000000000000080000",
      "type": "0x2",
      "transactionHash": "0x9506cdf3ae2eb288b30cdcd230804cffa35f7742b7b0fd92f14e6657f2d96466",
      "transactionIndex": "0x1",
      "blockHash": "0xe3778cfae12e717461b408dd7665754922ce3a9ad52f2a1cbb8f225debe16c6f",
      "blockNumber": "0x29c599c",
      "gasUsed": "0xc963",
      "effectiveGasPrice": "0xe8d4a51000",
      "from": "0x70b2dc70cc04621eca8f953420c89c713edf973c",
      "to": "0x9995311bf7bf8675eea58258bcf3f99bcfc18478",
      "contractAddress": null,
      "gasUsedForL1": "0x0",
      "l1BlockNumber": "0x16f957c"
    },
    {
      "status": "0x1",
      "cumulativeGasUsed": "0xc963",
      "logs": [
        {
          "address": "0x9995311bf7bf8675eea58258bcf3f99bcfc18478",
          "topics": [
            "0xa52ea92e6e955aa8ac66420b86350f7139959adfcc7e6a14eee1bd116d09860e",
            "0x000000000000000000000000000000000000000000000000000000000000000d",
            "0x000000000000000000000000b009ae185dcc23419d2d1e4abdc42fc30648dacb",
            "0xd198581300000000000000000000000000000000000000000000000000000000"
          ],
          "data": "0x0000000000000000000000000000000000000000000000000000000000000001",
          "blockHash": "0x33d318148b595aec47d6daeedbc01b99f906cfb3e4810427b027fca74d89f88d",
          "blockNumber": "0x29c599d",
          "blockTimestamp": "0x694d3e17",
          "transactionHash": "0x507792c4d737b84fc054fd1ed875fb3bdc00e388e513fbf5b2459272717f8143",
          "transactionIndex": "0x1",
          "logIndex": "0x0",
          "removed": false
        }
      ],
      "logsBloom": "0x00000000000000000040000000000000000000000000000000000000000100000000000004000000008000000000000000000000000000000000000000000000000000000000000000000000000000000002000000000000000000000000000000000000000000000000000000000000000000000000080000000000000000000000000000000000000000000000000000000400010000000000000000000000000000000080000000000000000001000000000000000000000000000000000000000000000000000000000000080000000000000000000020000000000000020000000000000000000000000000000000001000000000000000000000080000",
      "type": "0x2",
      "transactionHash": "0x507792c4d737b84fc054fd1ed875fb3bdc00e388e513fbf5b2459272717f8143",
      "transactionIndex": "0x1",
      "blockHash": "0x33d318148b595aec47d6daeedbc01b99f906cfb3e4810427b027fca74d89f88d",
      "blockNumber": "0x29c599d",
      "gasUsed": "0xc963",
      "effectiveGasPrice": "0xe8d4a51000",
      "from": "0x70b2dc70cc04621eca8f953420c89c713edf973c",
      "to": "0x9995311bf7bf8675eea58258bcf3f99bcfc18478",
      "contractAddress": null,
      "gasUsedForL1": "0x0",
      "l1BlockNumber": "0x16f957c"
    },
    {
      "status": "0x1",
      "cumulativeGasUsed": "0x18fe6",
      "logs": [
        {
          "address": "0x9995311bf7bf8675eea58258bcf3f99bcfc18478",
          "topics": [
            "0x950a343f5d10445e82a71036d3f4fb3016180a25805141932543b83e2078a93e",
            "0x000000000000000000000000b009ae185dcc23419d2d1e4abdc42fc30648dacb",
            "0x53174fa400000000000000000000000000000000000000000000000000000000"
          ],
          "data": "0x0000000000000000000000000000000000000000000000000000000000000001",
          "blockHash": "0x33d318148b595aec47d6daeedbc01b99f906cfb3e4810427b027fca74d89f88d",
          "blockNumber": "0x29c599d",
          "blockTimestamp": "0x694d3e17",
          "transactionHash": "0x041a69046b44c769bca636439f6d769230251be2a0ab4c8460d9bb4e20c62f74",
          "transactionIndex": "0x2",
          "logIndex": "0x1",
          "removed": false
        }
      ],
      "logsBloom": "0x00000000000000000100000000000000000000000000000000001080000000000000000004000000008000000000000000000000000000000000000000000000000000000000000000000000000000000000000000000000000000000000000000000000000000000000000000000000000000000000000000000000000000000008000000000000000000000000000000000400000000000000000000000000000000000000000000000000000001000000000020000000000000000000000000000000000000000000000000000000000000000000000020000000000000000000000000000000000000000000000000000000000000000000000000080001",
      "type": "0x2",
      "transactionHash": "0x041a69046b44c769bca636439f6d769230251be2a0ab4c8460d9bb4e20c62f74",
      "transactionIndex": "0x2",
      "blockHash": "0x33d318148b595aec47d6daeedbc01b99f906cfb3e4810427b027fca74d89f88d",
      "blockNumber": "0x29c599d",
      "gasUsed": "0xc683",
      "effectiveGasPrice": "0xe8d4a51000",
      "from": "0x70b2dc70cc04621eca8f953420c89c713edf973c",
      "to": "0x9995311bf7bf8675eea58258bcf3f99bcfc18478",
      "contractAddress": null,
      "gasUsedForL1": "0x0",
      "l1BlockNumber": "0x16f957c"
    },
    {
      "status": "0x1",
      "cumulativeGasUsed": "0x25669",
      "logs": [
        {
          "address": "0x9995311bf7bf8675eea58258bcf3f99bcfc18478",
          "topics": [
            "0x950a343f5d10445e82a71036d3f4fb3016180a25805141932543b83e2078a93e",
            "0x000000000000000000000000b009ae185dcc23419d2d1e4abdc42fc30648dacb",
            "0x19197ec600000000000000000000000000000000000000000000000000000000"
          ],
          "data": "0x0000000000000000000000000000000000000000000000000000000000000001",
          "blockHash": "0x33d318148b595aec47d6daeedbc01b99f906cfb3e4810427b027fca74d89f88d",
          "blockNumber": "0x29c599d",
          "blockTimestamp": "0x694d3e17",
          "transactionHash": "0xcb23312b622301750b2258a453210e8b96cb6d6459d0313bf0dc78d7f7fc8a26",
          "transactionIndex": "0x3",
          "logIndex": "0x2",
          "removed": false
        }
      ],
      "logsBloom": "0x00000000000000000100000000000000000000000000000000001000000000000000000004000000008000000000000000000000000000000000000000000000000000000000000000000000000000000000000000000000000000000000000000000000000000000000000000000000000000000000000000000000000000000008000000000000000000000000000000100400000000001000000000000000000000000000000000000000000001002000000000000000000000000000000000000000000000000000000000000000000000000000000020000000000000000000000000000000000000000000000000000000000000000000000000080000",
      "type": "0x2",
      "transactionHash": "0xcb23312b622301750b2258a453210e8b96cb6d6459d0313bf0dc78d7f7fc8a26",
      "transactionIndex": "0x3",
      "blockHash": "0x33d318148b595aec47d6daeedbc01b99f906cfb3e4810427b027fca74d89f88d",
      "blockNumber": "0x29c599d",
      "gasUsed": "0xc683",
      "effectiveGasPrice": "0xe8d4a51000",
      "from": "0x70b2dc70cc04621eca8f953420c89c713edf973c",
      "to": "0x9995311bf7bf8675eea58258bcf3f99bcfc18478",
      "contractAddress": null,
      "gasUsedForL1": "0x0",
      "l1BlockNumber": "0x16f957c"
    }
  ],
  "libraries": [],
  "pending": [],
  "returns": {},
  "timestamp": 1766669848574,
  "chain": 98866,
  "commit": "a57f00d"
}