{
  "transactions": [
    {
      "hash": "0x7750299278e3503cf50451a6211ef40494e240469edf64135605359a197aa0c6",
      "transactionType": "CALL",
      "contractName": null,
      "contractAddress": "0x75eea7b4514550119f86b6da4a909e3f4a92e7ba",
      "function": "fulfillRedeem(uint32,bytes32,uint256)",
      "arguments": [
        "30168",
        "0xee4074018ea58d900f5952d94a38040f2d5540b9b3bc45263dbf204d82063057",
        "1000"
      ],
      "transaction": {
        "from": "0x70b2dc70cc04621eca8f953420c89c713edf973c",
        "to": "0x75eea7b4514550119f86b6da4a909e3f4a92e7ba",
        "gas": "0x5d365",
        "value": "0x0",
        "input": "0x488d013200000000000000000000000000000000000000000000000000000000000075d8ee4074018ea58d900f5952d94a38040f2d5540b9b3bc45263dbf204d8206305700000000000000000000000000000000000000000000000000000000000003e8",
        "nonce": "0x2d",
        "chainId": "0x18232"
      },
      "additionalContracts": [],
      "isFixedGasLimit": false
    }
  ],
  "receipts": [
    {
      "status": "0x1",
      "cumulativeGasUsed": "0x437bf",
      "logs": [
        {
          "address": "0xed7aea61da92f901983bd85b63ba7d217797e405",
          "topics": [
            "0xddf252ad1be2c89b69c2b068fc378daa952ba7f163c4a11628f55a4df523b3ef",
            "0x000000000000000000000000802e1f92a6890430bcf350ad553c936fa425266c",
            "0x0000000000000000000000000000000000000000000000000000000000000000"
          ],
          "data": "0x00000000000000000000000000000000000000000000000000000000000003e8",
          "blockHash": "0x5129c48df0139f24ddf37459a21c0384b25f86353e9639d85461efaaa59d9983",
          "blockNumber": "0x2bf992a",
          "blockTimestamp": "0x69633312",
          "transactionHash": "0x7750299278e3503cf50451a6211ef40494e240469edf64135605359a197aa0c6",
          "transactionIndex": "0x1",
          "logIndex": "0x0",
          "removed": false
        },
        {
          "address": "0x222365ef19f7947e5484218551b56bb3965aa7af",
          "topics": [
            "0xddf252ad1be2c89b69c2b068fc378daa952ba7f163c4a11628f55a4df523b3ef",
            "0x000000000000000000000000ed7aea61da92f901983bd85b63ba7d217797e405",
            "0x000000000000000000000000802e1f92a6890430bcf350ad553c936fa425266c"
          ],
          "data": "0x000000000000000000000000000000000000000000000000000000000000044c",
          "blockHash": "0x5129c48df0139f24ddf37459a21c0384b25f86353e9639d85461efaaa59d9983",
          "blockNumber": "0x2bf992a",
          "blockTimestamp": "0x69633312",
          "transactionHash": "0x7750299278e3503cf50451a6211ef40494e240469edf64135605359a197aa0c6",
          "transactionIndex": "0x1",
          "logIndex": "0x1",
          "removed": false
        },
        {
          "address": "0xed7aea61da92f901983bd85b63ba7d217797e405",
          "topics": [
            "0xe0c82280a1164680e0cf43be7db4c4c9f985423623ad7a544fb76c772bdc6043",
            "0x000000000000000000000000802e1f92a6890430bcf350ad553c936fa425266c",
            "0x000000000000000000000000222365ef19f7947e5484218551b56bb3965aa7af",
            "0x000000000000000000000000802e1f92a6890430bcf350ad553c936fa425266c"
          ],
          "data": "0x000000000000000000000000000000000000000000000000000000000000044c00000000000000000000000000000000000000000000000000000000000003e8",
          "blockHash": "0x5129c48df0139f24ddf37459a21c0384b25f86353e9639d85461efaaa59d9983",
          "blockNumber": "0x2bf992a",
          "blockTimestamp": "0x69633312",
          "transactionHash": "0x7750299278e3503cf50451a6211ef40494e240469edf64135605359a197aa0c6",
          "transactionIndex": "0x1",
          "logIndex": "0x2",
          "removed": false
        },
        {
          "address": "0x802e1f92a6890430bcf350ad553c936fa425266c",
          "topics": [
            "0xfaa234a1781dd0ca647cada24c6572fd2621b67d67cf142c7c927fe008ed20fd",
            "0x00000000000000000000000075eea7b4514550119f86b6da4a909e3f4a92e7ba"
          ],
          "data": "0x00000000000000000000000000000000000000000000000000000000000003e8000000000000000000000000000000000000000000000000000000000000044c000000000000000000000000000000000000000000000000000000000000044c",
          "blockHash": "0x5129c48df0139f24ddf37459a21c0384b25f86353e9639d85461efaaa59d9983",
          "blockNumber": "0x2bf992a",
          "blockTimestamp": "0x69633312",
          "transactionHash": "0x7750299278e3503cf50451a6211ef40494e240469edf64135605359a197aa0c6",
          "transactionIndex": "0x1",
          "logIndex": "0x3",
          "removed": false
        }
      ],
      "logsBloom": "0x00002000000000000000000000000000000000000000000040000000000000000000000000000000000000200000000000000000010000000000000000000000000000000000000000000008000000000020000001000000800000000000000000000080021000000000000000040800000004000000000000100010008002020000000000400000000000000000000000000000200000010000000000100000000000000000000000000000000000000000000000000000000000000000200000000002000000000000000000000001000000100000000000000080000020000000000000000000000004000000000080000000000000000000000000000050",
      "type": "0x2",
      "transactionHash": "0x7750299278e3503cf50451a6211ef40494e240469edf64135605359a197aa0c6",
      "transactionIndex": "0x1",
      "blockHash": "0x5129c48df0139f24ddf37459a21c0384b25f86353e9639d85461efaaa59d9983",
      "blockNumber": "0x2bf992a",
      "gasUsed": "0x437bf",
      "effectiveGasPrice": "0xe8d4a51000",
      "from": "0x70b2dc70cc04621eca8f953420c89c713edf973c",
      "to": "0x75eea7b4514550119f86b6da4a909e3f4a92e7ba",
      "contractAddress": null,
      "gasUsedForL1": "0x0",
      "l1BlockNumber": "0x17167b6"
    }
  ],
  "libraries": [],
  "pending": [],
  "returns": {},
  "timestamp": 1768108818412,
  "chain": 98866,
  "commit": "6d62839"
}