{
  "transactions": [
    {
      "hash": "0x99bcf97105adfe7b17b6b8599e51bc380d133f38cdf2bcf176eff37c91c0d034",
      "transactionType": "CALL",
      "contractName": null,
      "contractAddress": "0x802e1f92a6890430bcf350ad553c936fa425266c",
      "function": "fulfillRedeem(address,uint256)",
      "arguments": [
        "0xb009Ae185dcc23419d2D1e4abdC42FC30648DacB",
        "1"
      ],
      "transaction": {
        "from": "0x70b2dc70cc04621eca8f953420c89c713edf973c",
        "to": "0x802e1f92a6890430bcf350ad553c936fa425266c",
        "gas": "0x3d230",
        "value": "0x0",
        "input": "0x36ac15ef000000000000000000000000b009ae185dcc23419d2d1e4abdc42fc30648dacb0000000000000000000000000000000000000000000000000000000000000001",
        "nonce": "0x13",
        "chainId": "0x18232"
      },
      "additionalContracts": [],
      "isFixedGasLimit": false
    }
  ],
  "receipts": [
    {
      "status": "0x1",
      "cumulativeGasUsed": "0x29cd9",
      "logs": [
        {
          "address": "0xed7aea61da92f901983bd85b63ba7d217797e405",
          "topics": [
            "0xddf252ad1be2c89b69c2b068fc378daa952ba7f163c4a11628f55a4df523b3ef",
            "0x000000000000000000000000802e1f92a6890430bcf350ad553c936fa425266c",
            "0x0000000000000000000000000000000000000000000000000000000000000000"
          ],
          "data": "0x0000000000000000000000000000000000000000000000000000000000000001",
          "blockHash": "0x3fbabc5ec827c0fb10ea6bdca597af69d1c7a49af1dd5f1da803286eff987f36",
          "blockNumber": "0x2994592",
          "blockTimestamp": "0x694a83a9",
          "transactionHash": "0x99bcf97105adfe7b17b6b8599e51bc380d133f38cdf2bcf176eff37c91c0d034",
          "transactionIndex": "0x1",
          "logIndex": "0x0",
          "removed": false
        },
        {
          "address": "0x222365ef19f7947e5484218551b56bb3965aa7af",
          "topics": [
            "0xddf252ad1be2c89b69c2b068fc378daa952ba7f163c4a11628f55a4df523b3ef",
            "0x000000000000000000000000ed7aea61da92f901983bd85b63ba7d217797e405",
            "0x000000000000000000000000802e1f92a6890430bcf350ad553c936fa425266c"
          ],
          "data": "0x0000000000000000000000000000000000000000000000000000000000000001",
          "blockHash": "0x3fbabc5ec827c0fb10ea6bdca597af69d1c7a49af1dd5f1da803286eff987f36",
          "blockNumber": "0x2994592",
          "blockTimestamp": "0x694a83a9",
          "transactionHash": "0x99bcf97105adfe7b17b6b8599e51bc380d133f38cdf2bcf176eff37c91c0d034",
          "transactionIndex": "0x1",
          "logIndex": "0x1",
          "removed": false
        },
        {
          "address": "0xed7aea61da92f901983bd85b63ba7d217797e405",
          "topics": [
            "0xe0c82280a1164680e0cf43be7db4c4c9f985423623ad7a544fb76c772bdc6043",
            "0x000000000000000000000000802e1f92a6890430bcf350ad553c936fa425266c",
            "0x000000000000000000000000222365ef19f7947e5484218551b56bb3965aa7af",
            "0x000000000000000000000000802e1f92a6890430bcf350ad553c936fa425266c"
          ],
          "data": "0x00000000000000000000000000000000000000000000000000000000000000010000000000000000000000000000000000000000000000000000000000000001",
          "blockHash": "0x3fbabc5ec827c0fb10ea6bdca597af69d1c7a49af1dd5f1da803286eff987f36",
          "blockNumber": "0x2994592",
          "blockTimestamp": "0x694a83a9",
          "transactionHash": "0x99bcf97105adfe7b17b6b8599e51bc380d133f38cdf2bcf176eff37c91c0d034",
          "transactionIndex": "0x1",
          "logIndex": "0x2",
          "removed": false
        },
        {
          "address": "0x802e1f92a6890430bcf350ad553c936fa425266c",
          "topics": [
            "0xfaa234a1781dd0ca647cada24c6572fd2621b67d67cf142c7c927fe008ed20fd",
            "0x000000000000000000000000b009ae185dcc23419d2d1e4abdc42fc30648dacb"
          ],
          "data": "0x000000000000000000000000000000000000000000000000000000000000000100000000000000000000000000000000000000000000000000000000000000010000000000000000000000000000000000000000000000000000000000000001",
          "blockHash": "0x3fbabc5ec827c0fb10ea6bdca597af69d1c7a49af1dd5f1da803286eff987f36",
          "blockNumber": "0x2994592",
          "blockTimestamp": "0x694a83a9",
          "transactionHash": "0x99bcf97105adfe7b17b6b8599e51bc380d133f38cdf2bcf176eff37c91c0d034",
          "transactionIndex": "0x1",
          "logIndex": "0x3",
          "removed": false
        }
      ],
      "logsBloom": "0x00000000000000000000000000000000000000000000000040000000000000000000000000000000000000200000000000000000010000000000000000000000000000000000000000000008000000000020000001000000800000000000000000000080021000000000000000040800000004000000000000100010008002000000000000400000000000000000000000000400200000010000000000100000000000000000000000000000000001000000000000000000000000000000200000000002000000000000000000000001000000100000000020000080000020000000000000000000000000000000000080000000000000000000000000000050",
      "type": "0x2",
      "transactionHash": "0x99bcf97105adfe7b17b6b8599e51bc380d133f38cdf2bcf176eff37c91c0d034",
      "transactionIndex": "0x1",
      "blockHash": "0x3fbabc5ec827c0fb10ea6bdca597af69d1c7a49af1dd5f1da803286eff987f36",
      "blockNumber": "0x2994592",
      "gasUsed": "0x29cd9",
      "effectiveGasPrice": "0xe8d4a51000",
      "from": "0x70b2dc70cc04621eca8f953420c89c713edf973c",
      "to": "0x802e1f92a6890430bcf350ad553c936fa425266c",
      "contractAddress": null,
      "gasUsedForL1": "0x0",
      "l1BlockNumber": "0x16f5b96"
    }
  ],
  "libraries": [],
  "pending": [],
  "returns": {},
  "timestamp": 1766491049857,
  "chain": 98866,
  "commit": "c87f923"
}